{
  "_format": "hh-sol-artifact-1",
  "contractName": "SRToken",
  "sourceName": "contracts/core/SRToken.sol",
  "abi": [
    {
      "inputs": [
        {
          "internalType": "contract IERC20",
          "name": "stakingToken_",
          "type": "address"
        },
        {
          "internalType": "contract IERC20",
          "name": "rewardToken_",
          "type": "address"
        },
        {
          "internalType": "uint32",
          "name": "start",
          "type": "uint32"
        },
        {
          "internalType": "uint32",
          "name": "end",
          "type": "uint32"
        },
        {
          "internalType": "uint128",
          "name": "rate",
          "type": "uint128"
        },
        {
          "internalType": "string",
          "name": "name_",
          "type": "string"
        },
        {
          "internalType": "string",
          "name": "symbol_",
          "type": "string"
        }
      ],
      "stateMutability": "nonpayable",
      "type": "constructor"
    },
    {
      "inputs": [
        {
          "internalType": "address",
          "name": "target",
          "type": "address"
        }
      ],
      "name": "AddressEmptyCode",
      "type": "error"
    },
    {
      "inputs": [
        {
          "internalType": "address",
          "name": "account",
          "type": "address"
        }
      ],
      "name": "AddressInsufficientBalance",
      "type": "error"
    },
    {
      "inputs": [
        {
          "internalType": "address",
          "name": "spender",
          "type": "address"
        },
        {
          "internalType": "uint256",
          "name": "allowance",
          "type": "uint256"
        },
        {
          "internalType": "uint256",
          "name": "needed",
          "type": "uint256"
        }
      ],
      "name": "ERC20InsufficientAllowance",
      "type": "error"
    },
    {
      "inputs": [
        {
          "internalType": "address",
          "name": "sender",
          "type": "address"
        },
        {
          "internalType": "uint256",
          "name": "balance",
          "type": "uint256"
        },
        {
          "internalType": "uint256",
          "name": "needed",
          "type": "uint256"
        }
      ],
      "name": "ERC20InsufficientBalance",
      "type": "error"
    },
    {
      "inputs": [
        {
          "internalType": "address",
          "name": "approver",
          "type": "address"
        }
      ],
      "name": "ERC20InvalidApprover",
      "type": "error"
    },
    {
      "inputs": [
        {
          "internalType": "address",
          "name": "receiver",
          "type": "address"
        }
      ],
      "name": "ERC20InvalidReceiver",
      "type": "error"
    },
    {
      "inputs": [
        {
          "internalType": "address",
          "name": "sender",
          "type": "address"
        }
      ],
      "name": "ERC20InvalidSender",
      "type": "error"
    },
    {
      "inputs": [
        {
          "internalType": "address",
          "name": "spender",
          "type": "address"
        }
      ],
      "name": "ERC20InvalidSpender",
      "type": "error"
    },
    {
      "inputs": [
        {
          "internalType": "address",
          "name": "receiver",
          "type": "address"
        },
        {
          "internalType": "uint256",
          "name": "assets",
          "type": "uint256"
        },
        {
          "internalType": "uint256",
          "name": "max",
          "type": "uint256"
        }
      ],
      "name": "ERC4626ExceededMaxDeposit",
      "type": "error"
    },
    {
      "inputs": [
        {
          "internalType": "address",
          "name": "receiver",
          "type": "address"
        },
        {
          "internalType": "uint256",
          "name": "shares",
          "type": "uint256"
        },
        {
          "internalType": "uint256",
          "name": "max",
          "type": "uint256"
        }
      ],
      "name": "ERC4626ExceededMaxMint",
      "type": "error"
    },
    {
      "inputs": [
        {
          "internalType": "address",
          "name": "owner",
          "type": "address"
        },
        {
          "internalType": "uint256",
          "name": "shares",
          "type": "uint256"
        },
        {
          "internalType": "uint256",
          "name": "max",
          "type": "uint256"
        }
      ],
      "name": "ERC4626ExceededMaxRedeem",
      "type": "error"
    },
    {
      "inputs": [
        {
          "internalType": "address",
          "name": "owner",
          "type": "address"
        },
        {
          "internalType": "uint256",
          "name": "assets",
          "type": "uint256"
        },
        {
          "internalType": "uint256",
          "name": "max",
          "type": "uint256"
        }
      ],
      "name": "ERC4626ExceededMaxWithdraw",
      "type": "error"
    },
    {
      "inputs": [],
      "name": "EnforcedPause",
      "type": "error"
    },
    {
      "inputs": [],
      "name": "ExpectedPause",
      "type": "error"
    },
    {
      "inputs": [],
      "name": "FailedInnerCall",
      "type": "error"
    },
    {
      "inputs": [],
      "name": "MathOverflowedMulDiv",
      "type": "error"
    },
    {
      "inputs": [
        {
          "internalType": "address",
          "name": "owner",
          "type": "address"
        }
      ],
      "name": "OwnableInvalidOwner",
      "type": "error"
    },
    {
      "inputs": [
        {
          "internalType": "address",
          "name": "account",
          "type": "address"
        }
      ],
      "name": "OwnableUnauthorizedAccount",
      "type": "error"
    },
    {
      "inputs": [
        {
          "internalType": "uint8",
          "name": "bits",
          "type": "uint8"
        },
        {
          "internalType": "uint256",
          "name": "value",
          "type": "uint256"
        }
      ],
      "name": "SafeCastOverflowedUintDowncast",
      "type": "error"
    },
    {
      "inputs": [
        {
          "internalType": "address",
          "name": "token",
          "type": "address"
        }
      ],
      "name": "SafeERC20FailedOperation",
      "type": "error"
    },
    {
      "inputs": [
        {
          "internalType": "uint256",
          "name": "start",
          "type": "uint256"
        },
        {
          "internalType": "uint256",
          "name": "end",
          "type": "uint256"
        },
        {
          "internalType": "uint256",
          "name": "current",
          "type": "uint256"
        }
      ],
      "name": "UpdateDuringCurrentPeriod",
      "type": "error"
    },
    {
      "inputs": [
        {
          "internalType": "uint256",
          "name": "start",
          "type": "uint256"
        },
        {
          "internalType": "uint256",
          "name": "end",
          "type": "uint256"
        }
      ],
      "name": "UpdateInvalidNewPeriod",
      "type": "error"
    },
    {
      "inputs": [],
      "name": "UpdateInvalidRewardRate",
      "type": "error"
    },
    {
      "inputs": [
        {
          "internalType": "uint256",
          "name": "start",
          "type": "uint256"
        },
        {
          "internalType": "uint256",
          "name": "current",
          "type": "uint256"
        }
      ],
      "name": "UpdateStartedNewPeriod",
      "type": "error"
    },
    {
      "anonymous": false,
      "inputs": [
        {
          "indexed": true,
          "internalType": "address",
          "name": "owner",
          "type": "address"
        },
        {
          "indexed": true,
          "internalType": "address",
          "name": "spender",
          "type": "address"
        },
        {
          "indexed": false,
          "internalType": "uint256",
          "name": "value",
          "type": "uint256"
        }
      ],
      "name": "Approval",
      "type": "event"
    },
    {
      "anonymous": false,
      "inputs": [
        {
          "indexed": true,
          "internalType": "address",
          "name": "sender",
          "type": "address"
        },
        {
          "indexed": true,
          "internalType": "address",
          "name": "receiver",
          "type": "address"
        },
        {
          "indexed": false,
          "internalType": "uint256",
          "name": "amount",
          "type": "uint256"
        }
      ],
      "name": "ClaimReward",
      "type": "event"
    },
    {
      "anonymous": false,
      "inputs": [
        {
          "indexed": true,
          "internalType": "address",
          "name": "sender",
          "type": "address"
        },
        {
          "indexed": true,
          "internalType": "address",
          "name": "owner",
          "type": "address"
        },
        {
          "indexed": false,
          "internalType": "uint256",
          "name": "assets",
          "type": "uint256"
        },
        {
          "indexed": false,
          "internalType": "uint256",
          "name": "shares",
          "type": "uint256"
        }
      ],
      "name": "Deposit",
      "type": "event"
    },
    {
      "anonymous": false,
      "inputs": [
        {
          "indexed": true,
          "internalType": "address",
          "name": "previousOwner",
          "type": "address"
        },
        {
          "indexed": true,
          "internalType": "address",
          "name": "newOwner",
          "type": "address"
        }
      ],
      "name": "OwnershipTransferred",
      "type": "event"
    },
    {
      "anonymous": false,
      "inputs": [
        {
          "indexed": false,
          "internalType": "address",
          "name": "account",
          "type": "address"
        }
      ],
      "name": "Paused",
      "type": "event"
    },
    {
      "anonymous": false,
      "inputs": [
        {
          "indexed": true,
          "internalType": "address",
          "name": "from",
          "type": "address"
        },
        {
          "indexed": true,
          "internalType": "address",
          "name": "to",
          "type": "address"
        },
        {
          "indexed": false,
          "internalType": "uint256",
          "name": "value",
          "type": "uint256"
        }
      ],
      "name": "Transfer",
      "type": "event"
    },
    {
      "anonymous": false,
      "inputs": [
        {
          "indexed": false,
          "internalType": "address",
          "name": "account",
          "type": "address"
        }
      ],
      "name": "Unpaused",
      "type": "event"
    },
    {
      "anonymous": false,
      "inputs": [
        {
          "indexed": false,
          "internalType": "uint256",
          "name": "start",
          "type": "uint256"
        },
        {
          "indexed": false,
          "internalType": "uint256",
          "name": "end",
          "type": "uint256"
        },
        {
          "indexed": false,
          "internalType": "uint256",
          "name": "rate",
          "type": "uint256"
        }
      ],
      "name": "UpdateRewardPeriod",
      "type": "event"
    },
    {
      "anonymous": false,
      "inputs": [
        {
          "indexed": false,
          "internalType": "uint256",
          "name": "rate",
          "type": "uint256"
        }
      ],
      "name": "UpdateRewardRate",
      "type": "event"
    },
    {
      "anonymous": false,
      "inputs": [
        {
          "indexed": true,
          "internalType": "address",
          "name": "sender",
          "type": "address"
        },
        {
          "indexed": true,
          "internalType": "address",
          "name": "receiver",
          "type": "address"
        },
        {
          "indexed": true,
          "internalType": "address",
          "name": "owner",
          "type": "address"
        },
        {
          "indexed": false,
          "internalType": "uint256",
          "name": "assets",
          "type": "uint256"
        },
        {
          "indexed": false,
          "internalType": "uint256",
          "name": "shares",
          "type": "uint256"
        }
      ],
      "name": "Withdraw",
      "type": "event"
    },
    {
      "inputs": [],
      "name": "SCALING",
      "outputs": [
        {
          "internalType": "uint256",
          "name": "",
          "type": "uint256"
        }
      ],
      "stateMutability": "view",
      "type": "function"
    },
    {
      "inputs": [
        {
          "internalType": "address",
          "name": "user",
          "type": "address"
        }
      ],
      "name": "accruedReward",
      "outputs": [
        {
          "internalType": "uint128",
          "name": "",
          "type": "uint128"
        }
      ],
      "stateMutability": "view",
      "type": "function"
    },
    {
      "inputs": [
        {
          "internalType": "address",
          "name": "owner",
          "type": "address"
        },
        {
          "internalType": "address",
          "name": "spender",
          "type": "address"
        }
      ],
      "name": "allowance",
      "outputs": [
        {
          "internalType": "uint256",
          "name": "",
          "type": "uint256"
        }
      ],
      "stateMutability": "view",
      "type": "function"
    },
    {
      "inputs": [
        {
          "internalType": "address",
          "name": "spender",
          "type": "address"
        },
        {
          "internalType": "uint256",
          "name": "value",
          "type": "uint256"
        }
      ],
      "name": "approve",
      "outputs": [
        {
          "internalType": "bool",
          "name": "",
          "type": "bool"
        }
      ],
      "stateMutability": "nonpayable",
      "type": "function"
    },
    {
      "inputs": [],
      "name": "asset",
      "outputs": [
        {
          "internalType": "address",
          "name": "",
          "type": "address"
        }
      ],
      "stateMutability": "view",
      "type": "function"
    },
    {
      "inputs": [
        {
          "internalType": "address",
          "name": "account",
          "type": "address"
        }
      ],
      "name": "balanceOf",
      "outputs": [
        {
          "internalType": "uint256",
          "name": "",
          "type": "uint256"
        }
      ],
      "stateMutability": "view",
      "type": "function"
    },
    {
      "inputs": [
        {
          "internalType": "address",
          "name": "receiver",
          "type": "address"
        }
      ],
      "name": "claimReward",
      "outputs": [
        {
          "internalType": "uint128",
          "name": "amount",
          "type": "uint128"
        }
      ],
      "stateMutability": "nonpayable",
      "type": "function"
    },
    {
      "inputs": [
        {
          "internalType": "uint256",
          "name": "shares",
          "type": "uint256"
        }
      ],
      "name": "convertToAssets",
      "outputs": [
        {
          "internalType": "uint256",
          "name": "",
          "type": "uint256"
        }
      ],
      "stateMutability": "view",
      "type": "function"
    },
    {
      "inputs": [
        {
          "internalType": "uint256",
          "name": "assets",
          "type": "uint256"
        }
      ],
      "name": "convertToShares",
      "outputs": [
        {
          "internalType": "uint256",
          "name": "",
          "type": "uint256"
        }
      ],
      "stateMutability": "view",
      "type": "function"
    },
    {
      "inputs": [],
      "name": "decimals",
      "outputs": [
        {
          "internalType": "uint8",
          "name": "",
          "type": "uint8"
        }
      ],
      "stateMutability": "view",
      "type": "function"
    },
    {
      "inputs": [
        {
          "internalType": "uint256",
          "name": "assets",
          "type": "uint256"
        },
        {
          "internalType": "address",
          "name": "receiver",
          "type": "address"
        }
      ],
      "name": "deposit",
      "outputs": [
        {
          "internalType": "uint256",
          "name": "",
          "type": "uint256"
        }
      ],
      "stateMutability": "nonpayable",
      "type": "function"
    },
    {
      "inputs": [],
      "name": "isInRewardPeriod",
      "outputs": [
        {
          "internalType": "bool",
          "name": "",
          "type": "bool"
        }
      ],
      "stateMutability": "view",
      "type": "function"
    },
    {
      "inputs": [],
      "name": "lastRewardState",
      "outputs": [
        {
          "internalType": "uint128",
          "name": "index",
          "type": "uint128"
        },
        {
          "internalType": "uint32",
          "name": "lastUpdated",
          "type": "uint32"
        }
      ],
      "stateMutability": "view",
      "type": "function"
    },
    {
      "inputs": [
        {
          "internalType": "address",
          "name": "",
          "type": "address"
        }
      ],
      "name": "maxDeposit",
      "outputs": [
        {
          "internalType": "uint256",
          "name": "",
          "type": "uint256"
        }
      ],
      "stateMutability": "view",
      "type": "function"
    },
    {
      "inputs": [
        {
          "internalType": "address",
          "name": "",
          "type": "address"
        }
      ],
      "name": "maxMint",
      "outputs": [
        {
          "internalType": "uint256",
          "name": "",
          "type": "uint256"
        }
      ],
      "stateMutability": "view",
      "type": "function"
    },
    {
      "inputs": [
        {
          "internalType": "address",
          "name": "owner",
          "type": "address"
        }
      ],
      "name": "maxRedeem",
      "outputs": [
        {
          "internalType": "uint256",
          "name": "",
          "type": "uint256"
        }
      ],
      "stateMutability": "view",
      "type": "function"
    },
    {
      "inputs": [
        {
          "internalType": "address",
          "name": "owner",
          "type": "address"
        }
      ],
      "name": "maxWithdraw",
      "outputs": [
        {
          "internalType": "uint256",
          "name": "",
          "type": "uint256"
        }
      ],
      "stateMutability": "view",
      "type": "function"
    },
    {
      "inputs": [
        {
          "internalType": "uint256",
          "name": "shares",
          "type": "uint256"
        },
        {
          "internalType": "address",
          "name": "receiver",
          "type": "address"
        }
      ],
      "name": "mint",
      "outputs": [
        {
          "internalType": "uint256",
          "name": "",
          "type": "uint256"
        }
      ],
      "stateMutability": "nonpayable",
      "type": "function"
    },
    {
      "inputs": [],
      "name": "name",
      "outputs": [
        {
          "internalType": "string",
          "name": "",
          "type": "string"
        }
      ],
      "stateMutability": "view",
      "type": "function"
    },
    {
      "inputs": [],
      "name": "owner",
      "outputs": [
        {
          "internalType": "address",
          "name": "",
          "type": "address"
        }
      ],
      "stateMutability": "view",
      "type": "function"
    },
    {
      "inputs": [],
      "name": "pause",
      "outputs": [],
      "stateMutability": "nonpayable",
      "type": "function"
    },
    {
      "inputs": [],
      "name": "paused",
      "outputs": [
        {
          "internalType": "bool",
          "name": "",
          "type": "bool"
        }
      ],
      "stateMutability": "view",
      "type": "function"
    },
    {
      "inputs": [
        {
          "internalType": "uint256",
          "name": "assets",
          "type": "uint256"
        }
      ],
      "name": "previewDeposit",
      "outputs": [
        {
          "internalType": "uint256",
          "name": "",
          "type": "uint256"
        }
      ],
      "stateMutability": "view",
      "type": "function"
    },
    {
      "inputs": [
        {
          "internalType": "uint256",
          "name": "shares",
          "type": "uint256"
        }
      ],
      "name": "previewMint",
      "outputs": [
        {
          "internalType": "uint256",
          "name": "",
          "type": "uint256"
        }
      ],
      "stateMutability": "view",
      "type": "function"
    },
    {
      "inputs": [
        {
          "internalType": "uint256",
          "name": "shares",
          "type": "uint256"
        }
      ],
      "name": "previewRedeem",
      "outputs": [
        {
          "internalType": "uint256",
          "name": "",
          "type": "uint256"
        }
      ],
      "stateMutability": "view",
      "type": "function"
    },
    {
      "inputs": [
        {
          "internalType": "uint256",
          "name": "assets",
          "type": "uint256"
        }
      ],
      "name": "previewWithdraw",
      "outputs": [
        {
          "internalType": "uint256",
          "name": "",
          "type": "uint256"
        }
      ],
      "stateMutability": "view",
      "type": "function"
    },
    {
      "inputs": [
        {
          "internalType": "uint256",
          "name": "shares",
          "type": "uint256"
        },
        {
          "internalType": "address",
          "name": "receiver",
          "type": "address"
        },
        {
          "internalType": "address",
          "name": "owner",
          "type": "address"
        }
      ],
      "name": "redeem",
      "outputs": [
        {
          "internalType": "uint256",
          "name": "",
          "type": "uint256"
        }
      ],
      "stateMutability": "nonpayable",
      "type": "function"
    },
    {
      "inputs": [],
      "name": "renounceOwnership",
      "outputs": [],
      "stateMutability": "nonpayable",
      "type": "function"
    },
    {
      "inputs": [],
      "name": "rewardPeriod",
      "outputs": [
        {
          "internalType": "uint32",
          "name": "start",
          "type": "uint32"
        },
        {
          "internalType": "uint32",
          "name": "end",
          "type": "uint32"
        },
        {
          "internalType": "uint128",
          "name": "rate",
          "type": "uint128"
        }
      ],
      "stateMutability": "view",
      "type": "function"
    },
    {
      "inputs": [],
      "name": "rewardToken",
      "outputs": [
        {
          "internalType": "contract IERC20",
          "name": "",
          "type": "address"
        }
      ],
      "stateMutability": "view",
      "type": "function"
    },
    {
      "inputs": [],
      "name": "stakingToken",
      "outputs": [
        {
          "internalType": "contract IERC20",
          "name": "",
          "type": "address"
        }
      ],
      "stateMutability": "view",
      "type": "function"
    },
    {
      "inputs": [],
      "name": "symbol",
      "outputs": [
        {
          "internalType": "string",
          "name": "",
          "type": "string"
        }
      ],
      "stateMutability": "view",
      "type": "function"
    },
    {
      "inputs": [],
      "name": "totalAssets",
      "outputs": [
        {
          "internalType": "uint256",
          "name": "",
          "type": "uint256"
        }
      ],
      "stateMutability": "view",
      "type": "function"
    },
    {
      "inputs": [],
      "name": "totalSupply",
      "outputs": [
        {
          "internalType": "uint256",
          "name": "",
          "type": "uint256"
        }
      ],
      "stateMutability": "view",
      "type": "function"
    },
    {
      "inputs": [
        {
          "internalType": "address",
          "name": "to",
          "type": "address"
        },
        {
          "internalType": "uint256",
          "name": "value",
          "type": "uint256"
        }
      ],
      "name": "transfer",
      "outputs": [
        {
          "internalType": "bool",
          "name": "",
          "type": "bool"
        }
      ],
      "stateMutability": "nonpayable",
      "type": "function"
    },
    {
      "inputs": [
        {
          "internalType": "address",
          "name": "from",
          "type": "address"
        },
        {
          "internalType": "address",
          "name": "to",
          "type": "address"
        },
        {
          "internalType": "uint256",
          "name": "value",
          "type": "uint256"
        }
      ],
      "name": "transferFrom",
      "outputs": [
        {
          "internalType": "bool",
          "name": "",
          "type": "bool"
        }
      ],
      "stateMutability": "nonpayable",
      "type": "function"
    },
    {
      "inputs": [
        {
          "internalType": "address",
          "name": "newOwner",
          "type": "address"
        }
      ],
      "name": "transferOwnership",
      "outputs": [],
      "stateMutability": "nonpayable",
      "type": "function"
    },
    {
      "inputs": [],
      "name": "unpause",
      "outputs": [],
      "stateMutability": "nonpayable",
      "type": "function"
    },
    {
      "inputs": [
        {
          "internalType": "uint32",
          "name": "start",
          "type": "uint32"
        },
        {
          "internalType": "uint32",
          "name": "end",
          "type": "uint32"
        },
        {
          "internalType": "uint128",
          "name": "rate",
          "type": "uint128"
        }
      ],
      "name": "updateRewardPeriod",
      "outputs": [],
      "stateMutability": "nonpayable",
      "type": "function"
    },
    {
      "inputs": [
        {
          "internalType": "uint128",
          "name": "rate",
          "type": "uint128"
        }
      ],
      "name": "updateRewardRate",
      "outputs": [],
      "stateMutability": "nonpayable",
      "type": "function"
    },
    {
      "inputs": [
        {
          "internalType": "uint256",
          "name": "assets",
          "type": "uint256"
        },
        {
          "internalType": "address",
          "name": "receiver",
          "type": "address"
        },
        {
          "internalType": "address",
          "name": "owner",
          "type": "address"
        }
      ],
      "name": "withdraw",
      "outputs": [
        {
          "internalType": "uint256",
          "name": "",
          "type": "uint256"
        }
      ],
      "stateMutability": "nonpayable",
      "type": "function"
    }
  ],
  "bytecode": "0x60e06040523480156200001157600080fd5b506040516200552038038062005520833981810160405281019062000037919062000fdf565b858585856200004b620001da60201b60201c565b8b878781600390816200005f91906200131b565b5080600490816200007191906200131b565b5050506000806200008883620001e260201b60201c565b91509150816200009a5760126200009c565b805b60ff1660a08160ff16815250508273ffffffffffffffffffffffffffffffffffffffff1660808173ffffffffffffffffffffffffffffffffffffffff1681525050505050600073ffffffffffffffffffffffffffffffffffffffff168173ffffffffffffffffffffffffffffffffffffffff1603620001555760006040517f1e4fbdf70000000000000000000000000000000000000000000000000000000081526004016200014c919062001413565b60405180910390fd5b6200016681620002fc60201b60201c565b506000600560146101000a81548160ff0219169083151502179055508373ffffffffffffffffffffffffffffffffffffffff1660c08173ffffffffffffffffffffffffffffffffffffffff1681525050620001c9838383620003c260201b60201c565b50505050505050505050506200185c565b600033905090565b6000806000808473ffffffffffffffffffffffffffffffffffffffff1660405160240160405160208183030381529060405263313ce56760e01b6020820180517bffffffffffffffffffffffffffffffffffffffffffffffffffffffff83818316178352505050506040516200025991906200147d565b600060405180830381855afa9150503d806000811462000296576040519150601f19603f3d011682016040523d82523d6000602084013e6200029b565b606091505b5091509150818015620002b057506020815110155b15620002ed57600081806020019051810190620002ce9190620014c7565b905060ff80168111620002eb5760018194509450505050620002f7565b505b6000809350935050505b915091565b6000600560009054906101000a900473ffffffffffffffffffffffffffffffffffffffff16905081600560006101000a81548173ffffffffffffffffffffffffffffffffffffffff021916908373ffffffffffffffffffffffffffffffffffffffff1602179055508173ffffffffffffffffffffffffffffffffffffffff168173ffffffffffffffffffffffffffffffffffffffff167f8be0079c531659141344cd1fd0a4f28419497f9722a3daafe3b4186f6b6457e060405160405180910390a35050565b620003d26200068960201b60201c565b6000816fffffffffffffffffffffffffffffffff16036200041f576040517f327ae26100000000000000000000000000000000000000000000000000000000815260040160405180910390fd5b8163ffffffff168363ffffffff1610620004745782826040517f7c1d83610000000000000000000000000000000000000000000000000000000081526004016200046b92919062001532565b60405180910390fd5b620004846200072b60201b60201c565b15620004f757600660000160009054906101000a900463ffffffff16600660000160049054906101000a900463ffffffff16436040517f8f7bd022000000000000000000000000000000000000000000000000000000008152600401620004ee9392919062001570565b60405180910390fd5b438363ffffffff161015620005475782436040517fb881c27d0000000000000000000000000000000000000000000000000000000081526004016200053e929190620015ad565b60405180910390fd5b620005576200077860201b60201c565b5082600760000160106101000a81548163ffffffff021916908363ffffffff16021790555060405180606001604052808463ffffffff1681526020018363ffffffff168152602001826fffffffffffffffffffffffffffffffff16815250600660008201518160000160006101000a81548163ffffffff021916908363ffffffff16021790555060208201518160000160046101000a81548163ffffffff021916908363ffffffff16021790555060408201518160000160086101000a8154816fffffffffffffffffffffffffffffffff02191690836fffffffffffffffffffffffffffffffff1602179055509050507f965d48419b83f74151bdb33da2511f8288f1f800e99cd8f190a1a49a5a4f7d7a8383836040516200067c9392919062001613565b60405180910390a1505050565b62000699620001da60201b60201c565b73ffffffffffffffffffffffffffffffffffffffff16620006bf6200082860201b60201c565b73ffffffffffffffffffffffffffffffffffffffff16146200072957620006eb620001da60201b60201c565b6040517f118cdaa700000000000000000000000000000000000000000000000000000000815260040162000720919062001413565b60405180910390fd5b565b6000600660000160009054906101000a900463ffffffff1663ffffffff164310158015620007735750600660000160049054906101000a900463ffffffff1663ffffffff1643105b905090565b6200078262000d13565b620007926200085260201b60201c565b905043600760000160109054906101000a900463ffffffff1663ffffffff161015620008255780600760008201518160000160006101000a8154816fffffffffffffffffffffffffffffffff02191690836fffffffffffffffffffffffffffffffff16021790555060208201518160000160106101000a81548163ffffffff021916908363ffffffff1602179055509050505b90565b6000600560009054906101000a900473ffffffffffffffffffffffffffffffffffffffff16905090565b6200085c62000d13565b6200086c62000ac260201b60201c565b600043905060006200088362000b0c60201b60201c565b905060076040518060400160405290816000820160009054906101000a90046fffffffffffffffffffffffffffffffff166fffffffffffffffffffffffffffffffff166fffffffffffffffffffffffffffffffff1681526020016000820160109054906101000a900463ffffffff1663ffffffff1663ffffffff16815250509250600660000160009054906101000a900463ffffffff1663ffffffff1682116200092f57505062000abf565b6000600660000160049054906101000a900463ffffffff1663ffffffff1683106200097657600660000160049054906101000a900463ffffffff1663ffffffff1662000978565b825b90506000846020015163ffffffff16826200099491906200167f565b905060008103620009a9575050505062000abf565b620009ba8262000b2360201b60201c565b856020019063ffffffff16908163ffffffff1681525050600083111562000aba5762000a8a62000a3e600660000160089054906101000a90046fffffffffffffffffffffffffffffffff166fffffffffffffffffffffffffffffffff168362000a249190620016ba565b85670de0b6b3a764000062000b7e60201b9092919060201c565b600760000160009054906101000a90046fffffffffffffffffffffffffffffffff166fffffffffffffffffffffffffffffffff1662000a7e919062001705565b62000c8b60201b60201c565b85600001906fffffffffffffffffffffffffffffffff1690816fffffffffffffffffffffffffffffffff16815250505b505050505b90565b62000ad262000cf260201b60201c565b1562000b0a576040517fd93c066500000000000000000000000000000000000000000000000000000000815260040160405180910390fd5b565b600062000b1e62000d0960201b60201c565b905090565b600063ffffffff801682111562000b76576020826040517f6dfcc65000000000000000000000000000000000000000000000000000000000815260040162000b6d92919062001790565b60405180910390fd5b819050919050565b600080838502905060008019858709828110838203039150506000810362000bbe5783828162000bb35762000bb2620017bd565b5b049250505062000c84565b80841162000bf8576040517f227bc15300000000000000000000000000000000000000000000000000000000815260040160405180910390fd5b600084868809905082811182039150808303925060008560000386169050808604955080840493506001818260000304019050808302841793506000600287600302189050808702600203810290508087026002038102905080870260020381029050808702600203810290508087026002038102905080870260020381029050808502955050505050505b9392505050565b60006fffffffffffffffffffffffffffffffff801682111562000cea576080826040517f6dfcc65000000000000000000000000000000000000000000000000000000000815260040162000ce19291906200182f565b60405180910390fd5b819050919050565b6000600560149054906101000a900460ff16905090565b6000600254905090565b604051806040016040528060006fffffffffffffffffffffffffffffffff168152602001600063ffffffff1681525090565b6000604051905090565b600080fd5b600080fd5b600073ffffffffffffffffffffffffffffffffffffffff82169050919050565b600062000d868262000d59565b9050919050565b600062000d9a8262000d79565b9050919050565b62000dac8162000d8d565b811462000db857600080fd5b50565b60008151905062000dcc8162000da1565b92915050565b600063ffffffff82169050919050565b62000ded8162000dd2565b811462000df957600080fd5b50565b60008151905062000e0d8162000de2565b92915050565b60006fffffffffffffffffffffffffffffffff82169050919050565b62000e3a8162000e13565b811462000e4657600080fd5b50565b60008151905062000e5a8162000e2f565b92915050565b600080fd5b600080fd5b6000601f19601f8301169050919050565b7f4e487b7100000000000000000000000000000000000000000000000000000000600052604160045260246000fd5b62000eb58262000e6a565b810181811067ffffffffffffffff8211171562000ed75762000ed662000e7b565b5b80604052505050565b600062000eec62000d45565b905062000efa828262000eaa565b919050565b600067ffffffffffffffff82111562000f1d5762000f1c62000e7b565b5b62000f288262000e6a565b9050602081019050919050565b60005b8381101562000f5557808201518184015260208101905062000f38565b60008484015250505050565b600062000f7862000f728462000eff565b62000ee0565b90508281526020810184848401111562000f975762000f9662000e65565b5b62000fa484828562000f35565b509392505050565b600082601f83011262000fc45762000fc362000e60565b5b815162000fd684826020860162000f61565b91505092915050565b600080600080600080600060e0888a03121562001001576200100062000d4f565b5b6000620010118a828b0162000dbb565b9750506020620010248a828b0162000dbb565b9650506040620010378a828b0162000dfc565b95505060606200104a8a828b0162000dfc565b94505060806200105d8a828b0162000e49565b93505060a088015167ffffffffffffffff81111562001081576200108062000d54565b5b6200108f8a828b0162000fac565b92505060c088015167ffffffffffffffff811115620010b357620010b262000d54565b5b620010c18a828b0162000fac565b91505092959891949750929550565b600081519050919050565b7f4e487b7100000000000000000000000000000000000000000000000000000000600052602260045260246000fd5b600060028204905060018216806200112357607f821691505b602082108103620011395762001138620010db565b5b50919050565b60008190508160005260206000209050919050565b60006020601f8301049050919050565b600082821b905092915050565b600060088302620011a37fffffffffffffffffffffffffffffffffffffffffffffffffffffffffffffffff8262001164565b620011af868362001164565b95508019841693508086168417925050509392505050565b6000819050919050565b6000819050919050565b6000620011fc620011f6620011f084620011c7565b620011d1565b620011c7565b9050919050565b6000819050919050565b6200121883620011db565b62001230620012278262001203565b84845462001171565b825550505050565b600090565b6200124762001238565b620012548184846200120d565b505050565b5b818110156200127c57620012706000826200123d565b6001810190506200125a565b5050565b601f821115620012cb5762001295816200113f565b620012a08462001154565b81016020851015620012b0578190505b620012c8620012bf8562001154565b83018262001259565b50505b505050565b600082821c905092915050565b6000620012f060001984600802620012d0565b1980831691505092915050565b60006200130b8383620012dd565b9150826002028217905092915050565b6200132682620010d0565b67ffffffffffffffff81111562001342576200134162000e7b565b5b6200134e82546200110a565b6200135b82828562001280565b600060209050601f8311600181146200139357600084156200137e578287015190505b6200138a8582620012fd565b865550620013fa565b601f198416620013a3866200113f565b60005b82811015620013cd57848901518255600182019150602085019450602081019050620013a6565b86831015620013ed5784890151620013e9601f891682620012dd565b8355505b6001600288020188555050505b505050505050565b6200140d8162000d79565b82525050565b60006020820190506200142a600083018462001402565b92915050565b600081519050919050565b600081905092915050565b6000620014538262001430565b6200145f81856200143b565b93506200147181856020860162000f35565b80840191505092915050565b60006200148b828462001446565b915081905092915050565b620014a181620011c7565b8114620014ad57600080fd5b50565b600081519050620014c18162001496565b92915050565b600060208284031215620014e057620014df62000d4f565b5b6000620014f084828501620014b0565b91505092915050565b60006200151a620015146200150e8462000dd2565b620011d1565b620011c7565b9050919050565b6200152c81620014f9565b82525050565b600060408201905062001549600083018562001521565b62001558602083018462001521565b9392505050565b6200156a81620011c7565b82525050565b600060608201905062001587600083018662001521565b62001596602083018562001521565b620015a560408301846200155f565b949350505050565b6000604082019050620015c4600083018562001521565b620015d360208301846200155f565b9392505050565b6000620015fb620015f5620015ef8462000e13565b620011d1565b620011c7565b9050919050565b6200160d81620015da565b82525050565b60006060820190506200162a600083018662001521565b62001639602083018562001521565b62001648604083018462001602565b949350505050565b7f4e487b7100000000000000000000000000000000000000000000000000000000600052601160045260246000fd5b60006200168c82620011c7565b91506200169983620011c7565b9250828203905081811115620016b457620016b362001650565b5b92915050565b6000620016c782620011c7565b9150620016d483620011c7565b9250828202620016e481620011c7565b91508282048414831517620016fe57620016fd62001650565b5b5092915050565b60006200171282620011c7565b91506200171f83620011c7565b92508282019050808211156200173a576200173962001650565b5b92915050565b6000819050919050565b600060ff82169050919050565b600062001778620017726200176c8462001740565b620011d1565b6200174a565b9050919050565b6200178a8162001757565b82525050565b6000604082019050620017a760008301856200177f565b620017b660208301846200155f565b9392505050565b7f4e487b7100000000000000000000000000000000000000000000000000000000600052601260045260246000fd5b6000819050919050565b600062001817620018116200180b84620017ec565b620011d1565b6200174a565b9050919050565b6200182981620017f6565b82525050565b60006040820190506200184660008301856200181e565b6200185560208301846200155f565b9392505050565b60805160a05160c051613c78620018a8600039600081816114f40152611f4d01526000610adf01526000818161086501528181610b1101528181611bdf0152611df40152613c786000f3fe608060405234801561001057600080fd5b50600436106102535760003560e01c806372f702f311610146578063c63d75b6116100c3578063dd62ed3e11610087578063dd62ed3e14610788578063e88dc5b7146107b8578063ef8b30f7146107d8578063f2fde38b14610808578063f7c618c114610824578063fc908d431461084257610253565b8063c63d75b614610698578063c6e6f592146106c8578063ce96cb77146106f8578063d279c19114610728578063d905777e1461075857610253565b806395d89b411161010a57806395d89b41146105ba578063a9059cbb146105d8578063b3d7f6b914610608578063b460af9414610638578063ba0876521461066857610253565b806372f702f31461052657806378982dfa146105445780638456cb59146105625780638da5cb5b1461056c57806394bf804d1461058a57610253565b80633f4ba83a116101d457806361d815fc1161019857806361d815fc146104825780636e553f65146104a057806370a08231146104d0578063715018a61461050057806371b76eb61461050a57610253565b80633f4ba83a146103de578063402d267d146103e857806349127189146104185780634cdad506146104345780635c975abb1461046457610253565b806318160ddd1161021b57806318160ddd14610324578063189212f01461034257806323b872dd14610372578063313ce567146103a257806338d52e0f146103c057610253565b806301e1d1141461025857806306fdde031461027657806307a2d13a14610294578063095ea7b3146102c45780630a28a477146102f4575b600080fd5b610260610861565b60405161026d9190612eb7565b60405180910390f35b61027e610902565b60405161028b9190612f62565b60405180910390f35b6102ae60048036038101906102a99190612fb5565b610994565b6040516102bb9190612eb7565b60405180910390f35b6102de60048036038101906102d99190613040565b6109a8565b6040516102eb919061309b565b60405180910390f35b61030e60048036038101906103099190612fb5565b6109cb565b60405161031b9190612eb7565b60405180910390f35b61032c6109df565b6040516103399190612eb7565b60405180910390f35b61035c600480360381019061035791906130b6565b6109e9565b604051610369919061310e565b60405180910390f35b61038c60048036038101906103879190613129565b610aa4565b604051610399919061309b565b60405180910390f35b6103aa610ad3565b6040516103b79190613198565b60405180910390f35b6103c8610b0d565b6040516103d591906131c2565b60405180910390f35b6103e6610b35565b005b61040260048036038101906103fd91906130b6565b610b47565b60405161040f9190612eb7565b60405180910390f35b610432600480360381019061042d9190613209565b610b71565b005b61044e60048036038101906104499190612fb5565b610c44565b60405161045b9190612eb7565b60405180910390f35b61046c610c58565b604051610479919061309b565b60405180910390f35b61048a610c6f565b6040516104979190612eb7565b60405180910390f35b6104ba60048036038101906104b59190613236565b610c7b565b6040516104c79190612eb7565b60405180910390f35b6104ea60048036038101906104e591906130b6565b610cfd565b6040516104f79190612eb7565b60405180910390f35b610508610d45565b005b610524600480360381019061051f91906132b2565b610d59565b005b61052e610ffc565b60405161053b9190613364565b60405180910390f35b61054c61100b565b604051610559919061309b565b60405180910390f35b61056a611057565b005b610574611069565b60405161058191906131c2565b60405180910390f35b6105a4600480360381019061059f9190613236565b611093565b6040516105b19190612eb7565b60405180910390f35b6105c2611115565b6040516105cf9190612f62565b60405180910390f35b6105f260048036038101906105ed9190613040565b6111a7565b6040516105ff919061309b565b60405180910390f35b610622600480360381019061061d9190612fb5565b6111ca565b60405161062f9190612eb7565b60405180910390f35b610652600480360381019061064d919061337f565b6111de565b60405161065f9190612eb7565b60405180910390f35b610682600480360381019061067d919061337f565b611262565b60405161068f9190612eb7565b60405180910390f35b6106b260048036038101906106ad91906130b6565b6112e6565b6040516106bf9190612eb7565b60405180910390f35b6106e260048036038101906106dd9190612fb5565b611310565b6040516106ef9190612eb7565b60405180910390f35b610712600480360381019061070d91906130b6565b611324565b60405161071f9190612eb7565b60405180910390f35b610742600480360381019061073d91906130b6565b611340565b60405161074f919061310e565b60405180910390f35b610772600480360381019061076d91906130b6565b61136b565b60405161077f9190612eb7565b60405180910390f35b6107a2600480360381019061079d91906133d2565b61137d565b6040516107af9190612eb7565b60405180910390f35b6107c0611404565b6040516107cf93929190613421565b60405180910390f35b6107f260048036038101906107ed9190612fb5565b611458565b6040516107ff9190612eb7565b60405180910390f35b610822600480360381019061081d91906130b6565b61146c565b005b61082c6114f2565b6040516108399190613364565b60405180910390f35b61084a611516565b604051610858929190613458565b60405180910390f35b60007f000000000000000000000000000000000000000000000000000000000000000073ffffffffffffffffffffffffffffffffffffffff166370a08231306040518263ffffffff1660e01b81526004016108bc91906131c2565b602060405180830381865afa1580156108d9573d6000803e3d6000fd5b505050506040513d601f19601f820116820180604052508101906108fd9190613496565b905090565b606060038054610911906134f2565b80601f016020809104026020016040519081016040528092919081815260200182805461093d906134f2565b801561098a5780601f1061095f5761010080835404028352916020019161098a565b820191906000526020600020905b81548152906001019060200180831161096d57829003601f168201915b5050505050905090565b60006109a1826000611554565b9050919050565b6000806109b36115ad565b90506109c08185856115b5565b600191505092915050565b60006109d88260016115c7565b9050919050565b6000600254905090565b6000806109f4611620565b90506000600860008573ffffffffffffffffffffffffffffffffffffffff1673ffffffffffffffffffffffffffffffffffffffff1681526020019081526020016000209050610a70610a458561185f565b8260000160009054906101000a90046fffffffffffffffffffffffffffffffff168460000151611871565b8160000160109054906101000a90046fffffffffffffffffffffffffffffffff16610a9b9190613552565b92505050919050565b600080610aaf6115ad565b9050610abc8582856118be565b610ac7858585611952565b60019150509392505050565b6000610add611a46565b7f0000000000000000000000000000000000000000000000000000000000000000610b089190613596565b905090565b60007f0000000000000000000000000000000000000000000000000000000000000000905090565b610b3d611a4b565b610b45611ad2565b565b60007fffffffffffffffffffffffffffffffffffffffffffffffffffffffffffffffff9050919050565b610b79611a4b565b6000816fffffffffffffffffffffffffffffffff1603610bc5576040517f327ae26100000000000000000000000000000000000000000000000000000000815260040160405180910390fd5b610bcd611b35565b5080600660000160086101000a8154816fffffffffffffffffffffffffffffffff02191690836fffffffffffffffffffffffffffffffff1602179055507fbdb1d40fe7ef98c2d56f0c896aeb17ce6eba99fc559d7348010c4d67b748d05781604051610c3991906135fc565b60405180910390a150565b6000610c51826000611554565b9050919050565b6000600560149054906101000a900460ff16905090565b670de0b6b3a764000081565b600080610c8783610b47565b905080841115610cd2578284826040517f79012fb2000000000000000000000000000000000000000000000000000000008152600401610cc993929190613617565b60405180910390fd5b6000610cdd85611458565b9050610cf2610cea6115ad565b858784611bda565b809250505092915050565b60008060008373ffffffffffffffffffffffffffffffffffffffff1673ffffffffffffffffffffffffffffffffffffffff168152602001908152602001600020549050919050565b610d4d611a4b565b610d576000611c7d565b565b610d61611a4b565b6000816fffffffffffffffffffffffffffffffff1603610dad576040517f327ae26100000000000000000000000000000000000000000000000000000000815260040160405180910390fd5b8163ffffffff168363ffffffff1610610dff5782826040517f7c1d8361000000000000000000000000000000000000000000000000000000008152600401610df692919061367f565b60405180910390fd5b610e0761100b565b15610e7757600660000160009054906101000a900463ffffffff16600660000160049054906101000a900463ffffffff16436040517f8f7bd022000000000000000000000000000000000000000000000000000000008152600401610e6e939291906136a8565b60405180910390fd5b438363ffffffff161015610ec45782436040517fb881c27d000000000000000000000000000000000000000000000000000000008152600401610ebb9291906136df565b60405180910390fd5b610ecc611b35565b5082600760000160106101000a81548163ffffffff021916908363ffffffff16021790555060405180606001604052808463ffffffff1681526020018363ffffffff168152602001826fffffffffffffffffffffffffffffffff16815250600660008201518160000160006101000a81548163ffffffff021916908363ffffffff16021790555060208201518160000160046101000a81548163ffffffff021916908363ffffffff16021790555060408201518160000160086101000a8154816fffffffffffffffffffffffffffffffff02191690836fffffffffffffffffffffffffffffffff1602179055509050507f965d48419b83f74151bdb33da2511f8288f1f800e99cd8f190a1a49a5a4f7d7a838383604051610fef93929190613708565b60405180910390a1505050565b6000611006610b0d565b905090565b6000600660000160009054906101000a900463ffffffff1663ffffffff1643101580156110525750600660000160049054906101000a900463ffffffff1663ffffffff1643105b905090565b61105f611a4b565b611067611d43565b565b6000600560009054906101000a900473ffffffffffffffffffffffffffffffffffffffff16905090565b60008061109f836112e6565b9050808411156110ea578284826040517f284ff6670000000000000000000000000000000000000000000000000000000081526004016110e193929190613617565b60405180910390fd5b60006110f5856111ca565b905061110a6111026115ad565b858388611bda565b809250505092915050565b606060048054611124906134f2565b80601f0160208091040260200160405190810160405280929190818152602001828054611150906134f2565b801561119d5780601f106111725761010080835404028352916020019161119d565b820191906000526020600020905b81548152906001019060200180831161118057829003601f168201915b5050505050905090565b6000806111b26115ad565b90506111bf818585611952565b600191505092915050565b60006111d7826001611554565b9050919050565b6000806111ea83611324565b905080851115611235578285826040517ffe9cceec00000000000000000000000000000000000000000000000000000000815260040161122c93929190613617565b60405180910390fd5b6000611240866109cb565b905061125661124d6115ad565b86868985611da6565b80925050509392505050565b60008061126e8361136b565b9050808511156112b9578285826040517fb94abeec0000000000000000000000000000000000000000000000000000000081526004016112b093929190613617565b60405180910390fd5b60006112c486610c44565b90506112da6112d16115ad565b8686848a611da6565b80925050509392505050565b60007fffffffffffffffffffffffffffffffffffffffffffffffffffffffffffffffff9050919050565b600061131d8260006115c7565b9050919050565b600061133961133283610cfd565b6000611554565b9050919050565b600061135261134d6115ad565b6109e9565b905061136661135f6115ad565b8383611e9f565b919050565b600061137682610cfd565b9050919050565b6000600160008473ffffffffffffffffffffffffffffffffffffffff1673ffffffffffffffffffffffffffffffffffffffff16815260200190815260200160002060008373ffffffffffffffffffffffffffffffffffffffff1673ffffffffffffffffffffffffffffffffffffffff16815260200190815260200160002054905092915050565b60068060000160009054906101000a900463ffffffff16908060000160049054906101000a900463ffffffff16908060000160089054906101000a90046fffffffffffffffffffffffffffffffff16905083565b60006114658260006115c7565b9050919050565b611474611a4b565b600073ffffffffffffffffffffffffffffffffffffffff168173ffffffffffffffffffffffffffffffffffffffff16036114e65760006040517f1e4fbdf70000000000000000000000000000000000000000000000000000000081526004016114dd91906131c2565b60405180910390fd5b6114ef81611c7d565b50565b7f000000000000000000000000000000000000000000000000000000000000000081565b60078060000160009054906101000a90046fffffffffffffffffffffffffffffffff16908060000160109054906101000a900463ffffffff16905082565b60006115a56001611563610861565b61156d919061373f565b611575611a46565b600a61158191906138a6565b6115896109df565b611593919061373f565b8486611ffc909392919063ffffffff16565b905092915050565b600033905090565b6115c28383836001612053565b505050565b60006116186115d4611a46565b600a6115e091906138a6565b6115e86109df565b6115f2919061373f565b60016115fc610861565b611606919061373f565b8486611ffc909392919063ffffffff16565b905092915050565b611628612e2e565b61163061222a565b6000439050600061163f61226b565b905060076040518060400160405290816000820160009054906101000a90046fffffffffffffffffffffffffffffffff166fffffffffffffffffffffffffffffffff166fffffffffffffffffffffffffffffffff1681526020016000820160109054906101000a900463ffffffff1663ffffffff1663ffffffff16815250509250600660000160009054906101000a900463ffffffff1663ffffffff1682116116e957505061185c565b6000600660000160049054906101000a900463ffffffff1663ffffffff16831061172e57600660000160049054906101000a900463ffffffff1663ffffffff16611730565b825b90506000846020015163ffffffff168261174a91906138f1565b90506000810361175d575050505061185c565b6117668261227a565b856020019063ffffffff16908163ffffffff16815250506000831115611857576118276117e4600660000160089054906101000a90046fffffffffffffffffffffffffffffffff166fffffffffffffffffffffffffffffffff16836117cb9190613925565b85670de0b6b3a76400006122d29092919063ffffffff16565b600760000160009054906101000a90046fffffffffffffffffffffffffffffffff166fffffffffffffffffffffffffffffffff16611822919061373f565b6123d9565b85600001906fffffffffffffffffffffffffffffffff1690816fffffffffffffffffffffffffffffffff16815250505b505050505b90565b600061186a82610cfd565b9050919050565b60006118b56118b084846118859190613967565b6fffffffffffffffffffffffffffffffff16670de0b6b3a7640000876122d29092919063ffffffff16565b6123d9565b90509392505050565b60006118ca848461137d565b90507fffffffffffffffffffffffffffffffffffffffffffffffffffffffffffffffff811461194c578181101561193c578281836040517ffb8f41b200000000000000000000000000000000000000000000000000000000815260040161193393929190613617565b60405180910390fd5b61194b84848484036000612053565b5b50505050565b600073ffffffffffffffffffffffffffffffffffffffff168373ffffffffffffffffffffffffffffffffffffffff16036119c45760006040517f96c6fd1e0000000000000000000000000000000000000000000000000000000081526004016119bb91906131c2565b60405180910390fd5b600073ffffffffffffffffffffffffffffffffffffffff168273ffffffffffffffffffffffffffffffffffffffff1603611a365760006040517fec442f05000000000000000000000000000000000000000000000000000000008152600401611a2d91906131c2565b60405180910390fd5b611a4183838361243d565b505050565b600090565b611a536115ad565b73ffffffffffffffffffffffffffffffffffffffff16611a71611069565b73ffffffffffffffffffffffffffffffffffffffff1614611ad057611a946115ad565b6040517f118cdaa7000000000000000000000000000000000000000000000000000000008152600401611ac791906131c2565b60405180910390fd5b565b611ada6124cb565b6000600560146101000a81548160ff0219169083151502179055507f5db9ee0a495bf2e6ff9c91a7834c1ba4fdd244a5e8aa4e537bd38aeae4b073aa611b1e6115ad565b604051611b2b91906131c2565b60405180910390a1565b611b3d612e2e565b611b45611620565b905043600760000160109054906101000a900463ffffffff1663ffffffff161015611bd75780600760008201518160000160006101000a8154816fffffffffffffffffffffffffffffffff02191690836fffffffffffffffffffffffffffffffff16021790555060208201518160000160106101000a81548163ffffffff021916908363ffffffff1602179055509050505b90565b611c067f000000000000000000000000000000000000000000000000000000000000000085308561250b565b611c10838261258d565b8273ffffffffffffffffffffffffffffffffffffffff168473ffffffffffffffffffffffffffffffffffffffff167fdcbc1c05240f31ff3ad067ef1ee35ce4997762752e3a095284754544f4c709d78484604051611c6f9291906139ab565b60405180910390a350505050565b6000600560009054906101000a900473ffffffffffffffffffffffffffffffffffffffff16905081600560006101000a81548173ffffffffffffffffffffffffffffffffffffffff021916908373ffffffffffffffffffffffffffffffffffffffff1602179055508173ffffffffffffffffffffffffffffffffffffffff168173ffffffffffffffffffffffffffffffffffffffff167f8be0079c531659141344cd1fd0a4f28419497f9722a3daafe3b4186f6b6457e060405160405180910390a35050565b611d4b61222a565b6001600560146101000a81548160ff0219169083151502179055507f62e78cea01bee320cd4e420270b5ea74000d11b0c9f74754ebdbfc544b05a258611d8f6115ad565b604051611d9c91906131c2565b60405180910390a1565b8273ffffffffffffffffffffffffffffffffffffffff168573ffffffffffffffffffffffffffffffffffffffff1614611de557611de48386836118be565b5b611def838261260f565b611e1a7f00000000000000000000000000000000000000000000000000000000000000008584612691565b8273ffffffffffffffffffffffffffffffffffffffff168473ffffffffffffffffffffffffffffffffffffffff168673ffffffffffffffffffffffffffffffffffffffff167ffbde797d201c681b91056529119e0b02407c7bb96a4a2c75c01fc9667232c8db8585604051611e909291906139ab565b60405180910390a45050505050565b6000611eaa84612710565b9050818160200151611ebc9190613967565b600860008673ffffffffffffffffffffffffffffffffffffffff1673ffffffffffffffffffffffffffffffffffffffff16815260200190815260200160002060000160106101000a8154816fffffffffffffffffffffffffffffffff02191690836fffffffffffffffffffffffffffffffff160217905550611f9183836fffffffffffffffffffffffffffffffff167f000000000000000000000000000000000000000000000000000000000000000073ffffffffffffffffffffffffffffffffffffffff166126919092919063ffffffff16565b8273ffffffffffffffffffffffffffffffffffffffff168473ffffffffffffffffffffffffffffffffffffffff167f7e77f685b38c861064cb08f2776eb5dfd3c82f652ed9f21221b8c53b75628e5184604051611fee91906135fc565b60405180910390a350505050565b60008061200a8686866122d2565b90506120158361298d565b801561203257506000848061202d5761202c6139d4565b5b868809115b1561204757600181612044919061373f565b90505b80915050949350505050565b600073ffffffffffffffffffffffffffffffffffffffff168473ffffffffffffffffffffffffffffffffffffffff16036120c55760006040517fe602df050000000000000000000000000000000000000000000000000000000081526004016120bc91906131c2565b60405180910390fd5b600073ffffffffffffffffffffffffffffffffffffffff168373ffffffffffffffffffffffffffffffffffffffff16036121375760006040517f94280d6200000000000000000000000000000000000000000000000000000000815260040161212e91906131c2565b60405180910390fd5b81600160008673ffffffffffffffffffffffffffffffffffffffff1673ffffffffffffffffffffffffffffffffffffffff16815260200190815260200160002060008573ffffffffffffffffffffffffffffffffffffffff1673ffffffffffffffffffffffffffffffffffffffff168152602001908152602001600020819055508015612224578273ffffffffffffffffffffffffffffffffffffffff168473ffffffffffffffffffffffffffffffffffffffff167f8c5be1e5ebec7d5bd14f71427d1e84f3dd0314c0f7b2291e5b200ac8c7c3b9258460405161221b9190612eb7565b60405180910390a35b50505050565b612232610c58565b15612269576040517fd93c066500000000000000000000000000000000000000000000000000000000815260040160405180910390fd5b565b60006122756109df565b905090565b600063ffffffff80168211156122ca576020826040517f6dfcc6500000000000000000000000000000000000000000000000000000000081526004016122c1929190613a3e565b60405180910390fd5b819050919050565b600080838502905060008019858709828110838203039150506000810361230d57838281612303576123026139d4565b5b04925050506123d2565b808411612346576040517f227bc15300000000000000000000000000000000000000000000000000000000815260040160405180910390fd5b600084868809905082811182039150808303925060008560000386169050808604955080840493506001818260000304019050808302841793506000600287600302189050808702600203810290508087026002038102905080870260020381029050808702600203810290508087026002038102905080870260020381029050808502955050505050505b9392505050565b60006fffffffffffffffffffffffffffffffff8016821115612435576080826040517f6dfcc65000000000000000000000000000000000000000000000000000000000815260040161242c929190613aa2565b60405180910390fd5b819050919050565b600073ffffffffffffffffffffffffffffffffffffffff168373ffffffffffffffffffffffffffffffffffffffff161461247c5761247a83612710565b505b600073ffffffffffffffffffffffffffffffffffffffff168273ffffffffffffffffffffffffffffffffffffffff16146124bb576124b982612710565b505b6124c68383836129bb565b505050565b6124d3610c58565b612509576040517f8dfc202b00000000000000000000000000000000000000000000000000000000815260040160405180910390fd5b565b612587848573ffffffffffffffffffffffffffffffffffffffff166323b872dd86868660405160240161254093929190613acb565b604051602081830303815290604052915060e01b6020820180517bffffffffffffffffffffffffffffffffffffffffffffffffffffffff8381831617835250505050612be0565b50505050565b600073ffffffffffffffffffffffffffffffffffffffff168273ffffffffffffffffffffffffffffffffffffffff16036125ff5760006040517fec442f050000000000000000000000000000000000000000000000000000000081526004016125f691906131c2565b60405180910390fd5b61260b6000838361243d565b5050565b600073ffffffffffffffffffffffffffffffffffffffff168273ffffffffffffffffffffffffffffffffffffffff16036126815760006040517f96c6fd1e00000000000000000000000000000000000000000000000000000000815260040161267891906131c2565b60405180910390fd5b61268d8260008361243d565b5050565b61270b838473ffffffffffffffffffffffffffffffffffffffff1663a9059cbb85856040516024016126c4929190613b02565b604051602081830303815290604052915060e01b6020820180517bffffffffffffffffffffffffffffffffffffffffffffffffffffffff8381831617835250505050612be0565b505050565b612718612e60565b6000612722611b35565b9050600860008473ffffffffffffffffffffffffffffffffffffffff1673ffffffffffffffffffffffffffffffffffffffff1681526020019081526020016000206040518060400160405290816000820160009054906101000a90046fffffffffffffffffffffffffffffffff166fffffffffffffffffffffffffffffffff166fffffffffffffffffffffffffffffffff1681526020016000820160109054906101000a90046fffffffffffffffffffffffffffffffff166fffffffffffffffffffffffffffffffff166fffffffffffffffffffffffffffffffff1681525050915080600001516fffffffffffffffffffffffffffffffff1682600001516fffffffffffffffffffffffffffffffff1610156128c6576128536128448461185f565b83600001518360000151611871565b826020018181516128649190613552565b9150906fffffffffffffffffffffffffffffffff1690816fffffffffffffffffffffffffffffffff1681525050806000015182600001906fffffffffffffffffffffffffffffffff1690816fffffffffffffffffffffffffffffffff16815250505b81600860008573ffffffffffffffffffffffffffffffffffffffff1673ffffffffffffffffffffffffffffffffffffffff16815260200190815260200160002060008201518160000160006101000a8154816fffffffffffffffffffffffffffffffff02191690836fffffffffffffffffffffffffffffffff16021790555060208201518160000160106101000a8154816fffffffffffffffffffffffffffffffff02191690836fffffffffffffffffffffffffffffffff16021790555090505050919050565b6000600160028360038111156129a6576129a5613b2b565b5b6129b09190613b5a565b60ff16149050919050565b600073ffffffffffffffffffffffffffffffffffffffff168373ffffffffffffffffffffffffffffffffffffffff1603612a0d578060026000828254612a01919061373f565b92505081905550612ae0565b60008060008573ffffffffffffffffffffffffffffffffffffffff1673ffffffffffffffffffffffffffffffffffffffff16815260200190815260200160002054905081811015612a99578381836040517fe450d38c000000000000000000000000000000000000000000000000000000008152600401612a9093929190613617565b60405180910390fd5b8181036000808673ffffffffffffffffffffffffffffffffffffffff1673ffffffffffffffffffffffffffffffffffffffff16815260200190815260200160002081905550505b600073ffffffffffffffffffffffffffffffffffffffff168273ffffffffffffffffffffffffffffffffffffffff1603612b295780600260008282540392505081905550612b76565b806000808473ffffffffffffffffffffffffffffffffffffffff1673ffffffffffffffffffffffffffffffffffffffff168152602001908152602001600020600082825401925050819055505b8173ffffffffffffffffffffffffffffffffffffffff168373ffffffffffffffffffffffffffffffffffffffff167fddf252ad1be2c89b69c2b068fc378daa952ba7f163c4a11628f55a4df523b3ef83604051612bd39190612eb7565b60405180910390a3505050565b6000612c0b828473ffffffffffffffffffffffffffffffffffffffff16612c7790919063ffffffff16565b90506000815114158015612c30575080806020019051810190612c2e9190613bb7565b155b15612c7257826040517f5274afe7000000000000000000000000000000000000000000000000000000008152600401612c6991906131c2565b60405180910390fd5b505050565b6060612c8583836000612c8d565b905092915050565b606081471015612cd457306040517fcd786059000000000000000000000000000000000000000000000000000000008152600401612ccb91906131c2565b60405180910390fd5b6000808573ffffffffffffffffffffffffffffffffffffffff168486604051612cfd9190613c2b565b60006040518083038185875af1925050503d8060008114612d3a576040519150601f19603f3d011682016040523d82523d6000602084013e612d3f565b606091505b5091509150612d4f868383612d5a565b925050509392505050565b606082612d6f57612d6a82612de9565b612de1565b60008251148015612d97575060008473ffffffffffffffffffffffffffffffffffffffff163b145b15612dd957836040517f9996b315000000000000000000000000000000000000000000000000000000008152600401612dd091906131c2565b60405180910390fd5b819050612de2565b5b9392505050565b600081511115612dfc5780518082602001fd5b6040517f1425ea4200000000000000000000000000000000000000000000000000000000815260040160405180910390fd5b604051806040016040528060006fffffffffffffffffffffffffffffffff168152602001600063ffffffff1681525090565b604051806040016040528060006fffffffffffffffffffffffffffffffff16815260200160006fffffffffffffffffffffffffffffffff1681525090565b6000819050919050565b612eb181612e9e565b82525050565b6000602082019050612ecc6000830184612ea8565b92915050565b600081519050919050565b600082825260208201905092915050565b60005b83811015612f0c578082015181840152602081019050612ef1565b60008484015250505050565b6000601f19601f8301169050919050565b6000612f3482612ed2565b612f3e8185612edd565b9350612f4e818560208601612eee565b612f5781612f18565b840191505092915050565b60006020820190508181036000830152612f7c8184612f29565b905092915050565b600080fd5b612f9281612e9e565b8114612f9d57600080fd5b50565b600081359050612faf81612f89565b92915050565b600060208284031215612fcb57612fca612f84565b5b6000612fd984828501612fa0565b91505092915050565b600073ffffffffffffffffffffffffffffffffffffffff82169050919050565b600061300d82612fe2565b9050919050565b61301d81613002565b811461302857600080fd5b50565b60008135905061303a81613014565b92915050565b6000806040838503121561305757613056612f84565b5b60006130658582860161302b565b925050602061307685828601612fa0565b9150509250929050565b60008115159050919050565b61309581613080565b82525050565b60006020820190506130b0600083018461308c565b92915050565b6000602082840312156130cc576130cb612f84565b5b60006130da8482850161302b565b91505092915050565b60006fffffffffffffffffffffffffffffffff82169050919050565b613108816130e3565b82525050565b600060208201905061312360008301846130ff565b92915050565b60008060006060848603121561314257613141612f84565b5b60006131508682870161302b565b93505060206131618682870161302b565b925050604061317286828701612fa0565b9150509250925092565b600060ff82169050919050565b6131928161317c565b82525050565b60006020820190506131ad6000830184613189565b92915050565b6131bc81613002565b82525050565b60006020820190506131d760008301846131b3565b92915050565b6131e6816130e3565b81146131f157600080fd5b50565b600081359050613203816131dd565b92915050565b60006020828403121561321f5761321e612f84565b5b600061322d848285016131f4565b91505092915050565b6000806040838503121561324d5761324c612f84565b5b600061325b85828601612fa0565b925050602061326c8582860161302b565b9150509250929050565b600063ffffffff82169050919050565b61328f81613276565b811461329a57600080fd5b50565b6000813590506132ac81613286565b92915050565b6000806000606084860312156132cb576132ca612f84565b5b60006132d98682870161329d565b93505060206132ea8682870161329d565b92505060406132fb868287016131f4565b9150509250925092565b6000819050919050565b600061332a61332561332084612fe2565b613305565b612fe2565b9050919050565b600061333c8261330f565b9050919050565b600061334e82613331565b9050919050565b61335e81613343565b82525050565b60006020820190506133796000830184613355565b92915050565b60008060006060848603121561339857613397612f84565b5b60006133a686828701612fa0565b93505060206133b78682870161302b565b92505060406133c88682870161302b565b9150509250925092565b600080604083850312156133e9576133e8612f84565b5b60006133f78582860161302b565b92505060206134088582860161302b565b9150509250929050565b61341b81613276565b82525050565b60006060820190506134366000830186613412565b6134436020830185613412565b61345060408301846130ff565b949350505050565b600060408201905061346d60008301856130ff565b61347a6020830184613412565b9392505050565b60008151905061349081612f89565b92915050565b6000602082840312156134ac576134ab612f84565b5b60006134ba84828501613481565b91505092915050565b7f4e487b7100000000000000000000000000000000000000000000000000000000600052602260045260246000fd5b6000600282049050600182168061350a57607f821691505b60208210810361351d5761351c6134c3565b5b50919050565b7f4e487b7100000000000000000000000000000000000000000000000000000000600052601160045260246000fd5b600061355d826130e3565b9150613568836130e3565b925082820190506fffffffffffffffffffffffffffffffff8111156135905761358f613523565b5b92915050565b60006135a18261317c565b91506135ac8361317c565b9250828201905060ff8111156135c5576135c4613523565b5b92915050565b60006135e66135e16135dc846130e3565b613305565b612e9e565b9050919050565b6135f6816135cb565b82525050565b600060208201905061361160008301846135ed565b92915050565b600060608201905061362c60008301866131b3565b6136396020830185612ea8565b6136466040830184612ea8565b949350505050565b600061366961366461365f84613276565b613305565b612e9e565b9050919050565b6136798161364e565b82525050565b60006040820190506136946000830185613670565b6136a16020830184613670565b9392505050565b60006060820190506136bd6000830186613670565b6136ca6020830185613670565b6136d76040830184612ea8565b949350505050565b60006040820190506136f46000830185613670565b6137016020830184612ea8565b9392505050565b600060608201905061371d6000830186613670565b61372a6020830185613670565b61373760408301846135ed565b949350505050565b600061374a82612e9e565b915061375583612e9e565b925082820190508082111561376d5761376c613523565b5b92915050565b60008160011c9050919050565b6000808291508390505b60018511156137ca578086048111156137a6576137a5613523565b5b60018516156137b55780820291505b80810290506137c385613773565b945061378a565b94509492505050565b6000826137e3576001905061389f565b816137f1576000905061389f565b8160018114613807576002811461381157613840565b600191505061389f565b60ff84111561382357613822613523565b5b8360020a91508482111561383a57613839613523565b5b5061389f565b5060208310610133831016604e8410600b84101617156138755782820a9050838111156138705761386f613523565b5b61389f565b6138828484846001613780565b9250905081840481111561389957613898613523565b5b81810290505b9392505050565b60006138b182612e9e565b91506138bc8361317c565b92506138e97fffffffffffffffffffffffffffffffffffffffffffffffffffffffffffffffff84846137d3565b905092915050565b60006138fc82612e9e565b915061390783612e9e565b925082820390508181111561391f5761391e613523565b5b92915050565b600061393082612e9e565b915061393b83612e9e565b925082820261394981612e9e565b915082820484148315176139605761395f613523565b5b5092915050565b6000613972826130e3565b915061397d836130e3565b925082820390506fffffffffffffffffffffffffffffffff8111156139a5576139a4613523565b5b92915050565b60006040820190506139c06000830185612ea8565b6139cd6020830184612ea8565b9392505050565b7f4e487b7100000000000000000000000000000000000000000000000000000000600052601260045260246000fd5b6000819050919050565b6000613a28613a23613a1e84613a03565b613305565b61317c565b9050919050565b613a3881613a0d565b82525050565b6000604082019050613a536000830185613a2f565b613a606020830184612ea8565b9392505050565b6000819050919050565b6000613a8c613a87613a8284613a67565b613305565b61317c565b9050919050565b613a9c81613a71565b82525050565b6000604082019050613ab76000830185613a93565b613ac46020830184612ea8565b9392505050565b6000606082019050613ae060008301866131b3565b613aed60208301856131b3565b613afa6040830184612ea8565b949350505050565b6000604082019050613b1760008301856131b3565b613b246020830184612ea8565b9392505050565b7f4e487b7100000000000000000000000000000000000000000000000000000000600052602160045260246000fd5b6000613b658261317c565b9150613b708361317c565b925082613b8057613b7f6139d4565b5b828206905092915050565b613b9481613080565b8114613b9f57600080fd5b50565b600081519050613bb181613b8b565b92915050565b600060208284031215613bcd57613bcc612f84565b5b6000613bdb84828501613ba2565b91505092915050565b600081519050919050565b600081905092915050565b6000613c0582613be4565b613c0f8185613bef565b9350613c1f818560208601612eee565b80840191505092915050565b6000613c378284613bfa565b91508190509291505056fea26469706673582212203eb458636d48ad576ff024ed9dc6bc9040cfa638bd073a4cfd8717c7ac3adf7364736f6c63430008180033",
  "linkReferences": {},
  "deployedLinkReferences": {}
}